:040000007DEF01F09F
:100200009906990699069906BE009906BE009906B8
:100210004F06990699069906990699069906990630
:100220009906BE00BE00BE00990699069906990679
:1002300099069906990699069906990699069906C6
:100240009906990699069906BE00BE009906990678
:10025000990699069906BE00990699069906990687
:100260009906990699069906990699069906990696
:100270009906990699069906BE0099069906990667
:100280009906990699069906990699069906990676
:100290009906990699069906BE009906BE00BE0009
:1002A0009906990699069906990699069906990656
:1002B0009906990699069906990699069906990646
:1002C0009906990699069906990699069906990636
:1002D0009906990699069906990699069906990626
:1002E000BE00990699069906BE00BE00BE00BE007B
:1002F0009906990699069906FF0048EF0CF02DEC37
:100300000DF0C7820401089309930C930B830A93A1
:10031000CB96289729972C972B872A97CB9A289B9F
:10032000299B2C9B2B8B2A9BCB94289529952C952C
:100330002B852A95C990189119911C911B811A91AE
:10034000C992189319931C931B831A9384EC0CF095
:10035000B7EC0CF0FEEC0CF0CFEC0CF0000E316EB4
:10036000F00E326E7F0E336E450E346E000E186E38
:10037000000E196EB40E1A6E430E1B6E000EE7ECE3
:100380000CF001C506F502C507F5086A096A000EFA
:1003900046EC0AF006C514F507C515F508C516F5AF
:1003A00009C517F552EC06F014C52DF515C52EF547
:1003B00016C52FF517C530F579EC08F02DC546F5B3
:1003C0002EC547F52FC548F530C549F5000E4A6ED4
:1003D000000E4B6E340E4C6EC30E4D6EF2EC03F0FD
:1003E00046C596F547C597F548C598F549C599F5A9
:1003F00074C506F575C507F5000E07BEFF0E086E3D
:10040000096E010E46EC0AF006C52DF507C52EF55E
:1004100008C52FF509C530F5660E316E660E326ED1
:100420008E0E336E400E346E79EC08F02DC58AF5D1
:100430002EC58BF52FC58CF530C58DF596C556F5B7
:1004400097C557F598C558F599C559F58AC55AF510
:100450008BC55BF58CC55CF58DC55DF525EC0CF0A9
:1004600056C58EF557C58FF558C590F559C591F508
:100470008EC514F58FC515F590C516F591C517F500
:10048000000E186E000E196EA00E1A6E400E1B6E36
:1004900052EC06F014C586F515C587F516C588F526
:1004A00017C589F5000E016EC00E026E7F0E036E39
:1004B000440E046E60C505F561C506F562C507F515
:1004C00063C508F5A3EC0BF0D8B069EF02F06BEF51
:1004D00002F06DEF02F0B4EF02F060C501F561C506
:1004E00002F562C503F563C504F5000E056EC00E86
:1004F000066E7F0E076EC40E086EA3EC0BF0D8B02C
:1005000084EF02F086EF02F088EF02F0B4EF02F021
:10051000000E186E000E196E000E1A6E000E1B6E85
:100520008EC514F58FC515F590C516F591C517F54F
:1005300052EC06F014C546F515C547F516C548F545
:1005400017C549F570C54AF571C54BF572C54CF52F
:1005500073C54DF5F2EC03F046C570F547C571F56E
:1005600048C572F549C573F5140E186EAE0E196EB6
:10057000BF0E1A6E400E1B6E6CC514F56DC515F5D9
:100580006EC516F56FC517F552EC06F014C54AF5A1
:1005900015C54BF516C54CF517C54DF5000E186E73
:1005A000000E196E800E1A6E400E1B6E8AC514F571
:1005B0008BC515F58CC516F58DC517F552EC06F0F3
:1005C00014C546F515C547F516C548F517C549F5CF
:1005D000F2EC03F046C556F547C557F548C558F542
:1005E00049C559F568EC0CF056C52DF557C52EF5E3
:1005F00058C52FF559C530F5EC0E316E510E326EDF
:10060000C00E336E400E346E79EC08F02DC56CF5DB
:100610002EC56DF52FC56EF530C56FF570C54AF561
:1006200071C54BF572C54CF573C54DF586C546F5DC
:1006300087C547F588C548F589C549F5F2EC03F04B
:1006400046C592F547C593F548C594F549C595F556
:1006500092C546F593C547F594C548F595C549F546
:100660006CC54AF56DC54BF56EC54CF56FC54DF5BE
:10067000F2EC03F046C560F547C561F548C562F583
:1006800049C563F5050163BF4AEF03F048EF03F086
:1006900069EF03F0000E566E000E576E0C0E586E8A
:1006A000430E596E60C55AF561C55BF562C55CF5D0
:1006B00063C55DF525EC0CF056C560F557C561F5D1
:1006C00058C562F559C563F5C180C192C3868DEFE7
:1006D00003F063BF6EEF03F070EF03F08DEF03F0F4
:1006E00060C546F561C547F562C548F563C549F57E
:1006F000000E4A6E000E4B6E0C0E4C6E430E4D6E8D
:10070000F2EC03F046C560F547C561F548C562F5F2
:1007100049C563F5C190C182C396000E016EC00E3B
:10072000026E7F0E036E440E046E60C505F561C552
:1007300006F562C507F563C508F5A3EC0BF0D8B064
:10074000A4EF03F0A6EF03F0AFEF03F0000E0501F6
:10075000606FC00E616F7F0E626F440E636F030E99
:1007600011EC0DF096C501F597C502F598C503F596
:1007700099C504F520EC0BF0015011EC0DF096C575
:1007800001F597C502F598C503F599C504F520EC68
:100790000BF002C501F5026A015011EC0DF0FC0EE0
:1007A00011EC0DF060C501F561C502F562C503F5F8
:1007B00063C504F520EC0BF001C50BF502C50CF583
:1007C00026EC0DF0090E5F6E1E0E5E6EE40EE82E36
:1007D000FED75E2EFCD75F2EFAD700D0AEEF01F029
:1007E0007DEF01F04950800B526E49504924546E00
:1007F00048AEFDEF03F0FFEF03F000EF04F054808C
:100800005450D8B406EF04F008EF04F01DEF04F0E4
:100810005428D8A40EEF04F010EF04F018EF04F001
:10082000000E466E000E476E000E486E000E496EBA
:10083000488E000E496E25EF04F0000E466E000E45
:10084000476E000E486E000E496E4D50800B536E81
:1008500052505318D8B42FEF04F031EF04F032EFB8
:1008600004F0528C4D504D24536E4CAE3AEF04F0D0
:100870003CEF04F03DEF04F053805350D8B443EF05
:1008800004F045EF04F05AEF04F05328D8A44BEFDE
:1008900004F04DEF04F055EF04F0000E4A6E000E28
:1008A0004B6E000E4C6E000E4D6E4C8E000E4D6E5B
:1008B00062EF04F0000E4A6E000E4B6E000E4C6E9E
:1008C000000E4D6E5450535CD8B069EF04F06BEFDE
:1008D00004F092EF04F052AC70EF04F072EF04F009
:1008E00074EF04F0800E521A54C555F553C554F5F3
:1008F00055C553F546C555F54AC546F555C54AF59E
:1009000047C555F54BC547F555C54BF548C555F594
:100910004CC548F555C54CF549C555F54DC549F586
:1009200055C54DF5000E556E545053C54EF54F6AE2
:100930004E5E000E4F5A4FBEA7EF04F04F5009E134
:100940001A0E4E5CD8A0A7EF04F0A9EF04F0E0EF78
:1009500004F04650471048104910D8A4B2EF04F0F4
:10096000B5EF04F0010EB6EF04F0000E556E000E68
:10097000466E000E476E000E486E000E496E53C55F
:1009800054F5E9EF04F055A0C8EF04F0CAEF04F005
:10099000D0EF04F0D89055300109556ED2EF04F035
:1009A000D890553246A0D7EF04F0D9EF04F0DAEF33
:1009B00004F0558E49344932483247324632542A7F
:1009C0005350545CD8A0E7EF04F0E9EF04F0C3EF14
:1009D00004F052BCEEEF04F0F0EF04F030EF05F05D
:1009E0005450D8A4F6EF04F0F8EF04F002EF05F04D
:1009F000000E466E000E476E000E486E000E496EE9
:100A000051EF06F04A5046264B5047224C504822A0
:100A10004D50492249A00FEF05F011EF05F0BDEF51
:100A200005F055A016EF05F018EF05F01EEF05F0E4
:100A3000D89055300109556E20EF05F0D890553209
:100A400046A025EF05F027EF05F028EF05F0558EBD
:100A500049344932483247324632542ABDEF05F014
:100A60004A50465C4B5047584C5048584950800AB1
:100A70004E6E4D50800A4E58D8B041EF05F043EF0E
:100A800005F06EEF05F046504A5C4E6E47504B58ED
:100A90004F6E48504C58506E49504D58516EFF0E95
:100AA0004E24466EFF0E4F20476EFF0E5020486EBC
:100AB000FF0E5120496E800E521A556C5550D8A425
:100AC00064EF05F066EF05F076EF05F0010E4626BF
:100AD000000E47224822492276EF05F04A50465E32
:100AE0004B50475A4C50485A4D50495A465047105F
:100AF00048104910D8A47FEF05F081EF05F0B6EF5C
:100B000005F05550D8A487EF05F089EF05F0B6EF52
:100B100005F0000E466E000E476E000E486E000E89
:100B2000496E51EF06F0D89046364736483649367A
:100B300055AE9DEF05F09FEF05F0A0EF05F0468064
:100B400055A0A5EF05F0A7EF05F0ABEF05F0D880B5
:100B50005536ADEF05F0D89055365450D8B4B3EFB4
:100B600005F0B5EF05F0B6EF05F0540648AEBBEF63
:100B700005F0BDEF05F093EF05F0000E536E55AE96
:100B8000C4EF05F0C6EF05F0DEEF05F055C54EF5F4
:100B90007F0E4E16D8B4CFEF05F0D1EF05F0D5EFAC
:100BA00005F0010E536EDEEF05F046A0DAEF05F01A
:100BB000DCEF05F0DEEF05F0D1EF05F05350D8B4CF
:100BC000E4EF05F0E6EF05F011EF06F0010E462622
:100BD000000E47224822492249A0F1EF05F0F3EF29
:100BE00005F011EF06F046C54EF547C54FF548C56F
:100BF00050F549C551F55134513250324F324E32D1
:100C00004EC546F54FC547F550C548F551C549F5A0
:100C10005428D8B40EEF06F010EF06F011EF06F0EE
:100C2000542A5428D8B417EF06F019EF06F021EF34
:100C300006F05450D8A41FEF06F021EF06F033EF72
:100C400006F0000E466E000E476E000E486E000E57
:100C5000496E5450D8A42FEF06F031EF06F033EF71
:100C600006F0000E526E54A038EF06F03AEF06F090
:100C70003DEF06F0488E3EEF06F0489ED890543087
:100C8000496E52AE46EF06F048EF06F049EF06F027
:100C9000498E46C546F547C547F548C548F549C597
:100CA00049F512001750800B206E17501724266E3E
:100CB00016AE5DEF06F05FEF06F060EF06F02680FF
:100CC0002650D8B466EF06F068EF06F07BEF06F02A
:100CD0002628D8A46EEF06F070EF06F078EF06F045
:100CE000000E146E000E156E000E166E000E176EBE
:100CF000168E83EF06F0000E146E000E156E000EB9
:100D0000166E000E176E1B50800B201A1B501B24F2
:100D1000256E1AAE8EEF06F090EF06F091EF06F01A
:100D200025802550D8B497EF06F099EF06F0ACEF88
:100D300006F02528D8A49FEF06F0A1EF06F0A9EF52
:100D400006F0000E186E000E196E000E1A6E000EE0
:100D50001B6E1A8EB4EF06F0000E186E000E196EA0
:100D6000000E1A6E000E1B6E2550D8B4BAEF06F0B6
:100D7000BCEF06F0C4EF06F02650D8A4C2EF06F090
:100D8000C4EF06F0CEEF06F0000E146E000E156EE6
:100D9000000E166E000E176E78EF08F01A5014024F
:100DA0006100CCF32BF56100D0F32CF52B50216EB4
:100DB000226A236A246A2C50276E286A296A2A6AC2
:100DC000195015026100CCF32BF56100D0F32CF51E
:100DD0002B502126000E2222232224222C502726AB
:100DE000000E282229222A22185016026100CCF374
:100DF0002BF56100D0F32CF52B502126000E22227A
:100E0000232224222C502726000E282229222A229F
:100E100023C524F522C523F521C522F5216A1850E2
:100E200015026100CCF32BF56100D0F32CF52B50AB
:100E300021262C502222000E2322000E242219509B
:100E400014026100CCF32BF56100D0F32CF52B508C
:100E500021262C502222000E2322000E242223C5FC
:100E600024F522C523F521C522F5216A1850140264
:100E70006100CCF32BF56100D0F32CF52B5021262B
:100E80002C502222000E2322000E24221A5015027A
:100E90006100CCF32BF56100D0F32CF52B50272605
:100EA0002C502822000E2922000E2A221950160248
:100EB0006100CCF32BF56100D0F32CF52B502726E5
:100EC0002C502822000E2922000E2A221A50160227
:100ED0006100CCF32BF56100D0F32CF52B501C6E88
:100EE0002C501D6E1E6A1F6A1EC51FF51DC51EF5FE
:100EF0001CC51DF51C6A1C5027261D5028221E509B
:100F000029221F502A2221C51CF522C51DF523C503
:100F10001EF524C51FF5190E93EF07F0D8901F3268
:100F20001E321D321C32E82E8EEF07F01C50272691
:100F30001D5028221E5029221F502A2223C524F585
:100F400022C523F521C522F5216A255026C51CF5A9
:100F50001D6A1C26000E1D22820E1C242B6EFF0E05
:100F60001D202C6EC9EF07F0D89027362836293679
:100F70002A3624AEBEEF07F0C0EF07F0C1EF07F04E
:100F80002780D89021362236233624362B06D8A047
:100F90002C0629AECEEF07F0D0EF07F0B4EF07F044
:100FA000000E256E24AED7EF07F0D9EF07F0FDEF66
:100FB00007F0FF0E21141C6EFF0E22141D6EFF0E93
:100FC00023141E6E7F0E24141F6E1C501D101E1045
:100FD0001F10D8B4EEEF07F0F0EF07F0F4EF07F0D2
:100FE000010E256EFDEF07F027A0F9EF07F0FBEFEC
:100FF00007F0FDEF07F0F0EF07F02550D8B403EF4E
:1010000008F005EF08F029EF08F0010E2726000E82
:10101000282229222A222AA010EF08F012EF08F035
:1010200029EF08F027C51CF528C51DF529C51EF5B3
:101030002AC51FF51F341F321E321D321C321CC53B
:1010400027F51DC528F51EC529F51FC52AF52B4A0C
:101050002C2A2CBE34EF08F02C5008E12B28D8A005
:1010600034EF08F036EF08F040EF08F0000E276E7E
:10107000000E286E800E296E7F0E2A6E6EEF08F02D
:101080002CBE4DEF08F02C5006E12B04D8B04BEFEE
:1010900008F04DEF08F059EF08F0000E276E000E33
:1010A000286E000E296E000E2A6E000E206E6EEF66
:1010B00008F02BC526F5FF0E2716FF0E28167F0E0B
:1010C0002916000E2A1626A068EF08F06AEF08F02D
:1010D0006BEF08F0298ED89026302A6E20502A1205
:1010E00027C514F528C515F529C516F52AC517F520
:1010F00012003050800B3D6E30503024446E2FAEC5
:1011000084EF08F086EF08F087EF08F04480445041
:10111000D8B48DEF08F08FEF08F0A4EF08F0442862
:10112000D8A495EF08F097EF08F09FEF08F0000EB5
:101130002D6E000E2E6E000E2F6E000E306E2F8E56
:10114000000E306EACEF08F0000E2D6E000E2E6E0D
:10115000000E2F6E000E306E3450800B3D1A34504E
:101160003424456E33AEB7EF08F0B9EF08F0BAEFAC
:1011700008F045804550D8B4C0EF08F0C2EF08F041
:10118000D7EF08F04528D8A4C8EF08F0CAEF08F058
:10119000D2EF08F0000E316E000E326E000E336E8C
:1011A000000E346E338E000E346EDFEF08F0000E4A
:1011B000316E000E326E000E336E000E346E315002
:1011C000321033103410D8A4E8EF08F0EAEF08F03A
:1011D00002EF09F0000E2D6E000E2E6E000E2F6E27
:1011E000000E306E800E2F127F0E30123D503012E6
:1011F0002DC52DF52EC52EF52FC52FF530C530F593
:1012000045EF0AF04450D8A408EF09F00AEF09F0BE
:1012100014EF09F0000E2D6E000E2E6E000E2F6ED4
:10122000000E306E45EF0AF0455044C535F5366A7C
:10123000355E000E365A7F0E35243E6E000E362087
:101240003F6E2DC539F52EC53AF52FC53BF530C596
:101250003CF5000E2D6E000E2E6E000E2F6E000E51
:10126000306E000E406E000E416E000E426E000E9B
:10127000436E000E456E75EF09F04550D8B443EF4C
:1012800009F045EF09F05CEF09F0D89039363A36AD
:101290003B363C36D8902D362E362F36303643AE80
:1012A00054EF09F056EF09F057EF09F02D80D89070
:1012B00040364136423643363150395C32503A5826
:1012C00033503B5834503C58D8A069EF09F06BEFCD
:1012D00009F074EF09F0438C3150395E32503A5ABC
:1012E00033503B5A34503C5A452A190E45647BEF23
:1012F00009F07DEF09F03DEF09F039503A103B104D
:101300003C10D8B486EF09F088EF09F0A0EF09F09F
:101310004080A0EF09F0D8902D362E362F3630368B
:1013200043AE95EF09F097EF09F098EF09F02D80A3
:10133000D89040364136423643363E06D8A03F0666
:101340002FAEA5EF09F0A7EF09F08BEF09F0000E23
:10135000456E43AEAEEF09F0B0EF09F0D4EF09F0FF
:10136000FF0E4014356EFF0E4114366EFF0E421410
:10137000376E7F0E4314386E3550361037103810E4
:10138000D8B4C5EF09F0C7EF09F0CBEF09F0010EB3
:10139000456ED4EF09F02DA0D0EF09F0D2EF09F09F
:1013A000D4EF09F0C7EF09F04550D8B4DAEF09F0EF
:1013B000DCEF09F000EF0AF0010E2D26000E2E22C0
:1013C0002F22302230A0E7EF09F0E9EF09F000EF1B
:1013D0000AF02DC535F52EC536F52FC537F530C5C4
:1013E00038F53834383237323632353235C52DF5A6
:1013F00036C52EF537C52FF538C530F53E4A3F2A9C
:101400003FBE0BEF0AF03F5008E13E28D8A00BEF9B
:101410000AF00DEF0AF018EF0AF0000E3F6E3E687A
:10142000000E2D6E000E2E6E000E2F6E000E306E12
:101430003FBE25EF0AF03F5006E13E04D8B023EF4F
:101440000AF025EF0AF033EF0AF0000E3F6E000EAF
:101450003E6E000E2D6E000E2E6E000E2F6E000ED4
:10146000306E000E3D6E3EC544F544A03AEF0AF0E2
:101470003CEF0AF03FEF0AF02F8E40EF0AF02F9E6C
:10148000D8904430306EF6EF08F012000E6E0E5019
:10149000D8B44DEF0AF04FEF0AF071EF0AF009BE31
:1014A00056EF0AF054EF0AF071EF0AF006C50AF59C
:1014B00007C50BF508C50CF509C50DF50A1E0B1E71
:1014C0000C1E0D1E0A2A000E0B220C220D220AC52C
:1014D00010F50BC511F50CC512F50DC513F579EF17
:1014E0000AF006C510F507C511F508C512F509C5BE
:1014F00013F50650071008100910D8A482EF0AF05F
:1015000084EF0AF08EEF0AF0000E066E000E076EF2
:10151000000E086E000E096E1FEF0BF0960E0F6E98
:1015200098EF0AF00F2AD89013321232113210328B
:10153000000E10140A6E000E11140B6E000E121421
:101540000C6EFE0E13140D6E0A500B100C100D10C5
:10155000D8A4ADEF0AF0AFEF0AF092EF0AF0BDEFBA
:101560000AF00F2A010E1026000E11221222132259
:10157000D8901332123211321032000E10140A6E4B
:10158000000E11140B6E000E12140C6EFF0E1314CD
:101590000D6E0A500B100C100D10D8A4D2EF0AF0EB
:1015A000D4EF0AF0B1EF0AF0DCEF0AF00F06D890A2
:1015B000103611361236133612BEE1EF0AF0E3EFA1
:1015C0000AF0EBEF0AF0020E0F60E9EF0AF0EBEF22
:1015D0000AF0D6EF0AF00FB0F0EF0AF0F2EF0AF0DF
:1015E000F3EF0AF0129ED8900F320FC50AF50B6A7E
:1015F0000C6A0D6A0AC50DF50C6A0B6A0A6A0A5074
:1016000010120B5011120C5012120D5013120E50DA
:10161000D8B40DEF0BF00FEF0BF017EF0BF009BE86
:1016200016EF0BF014EF0BF017EF0BF0138E10C545
:1016300006F511C507F512C508F513C509F5120021
:10164000033404340A6E0A50D8A429EF0BF02BEFB0
:101650000BF035EF0BF0000E016E000E026E000E67
:10166000036E000E046EA2EF0BF001C505F502C576
:1016700006F503C507F504C508F5200E45EF0BF088
:10168000D8900832073206320532E82E40EF0BF0D0
:101690000550096E038EFF0E0116FF0E0216FF0E97
:1016A0000316000E0416960E0A5E0ABE5CEF0BF0DF
:1016B0005AEF0BF072EF0BF00A50800A970FD8B078
:1016C00064EF0BF066EF0BF068EF0BF02BEF0BF015
:1016D000D89004320332023201320A3E68EF0BF036
:1016E0008AEF0BF01F0E0A6478EF0BF07AEF0BF025
:1016F00082EF0BF02BEF0BF0D89001360236033659
:1017000004360A060A50D8A488EF0BF08AEF0BF0D3
:101710007CEF0BF00950D8B490EF0BF092EF0BF088
:101720009AEF0BF0041E031E021E016C000E022233
:101730000322042201C501F502C502F503C503F524
:1017400004C504F51200000E0114096E000E021407
:101750000A6E800E03140B6E7F0E04140C6E09507B
:101760000A100B100C10D8A4B8EF0BF0BAEF0BF066
:10177000C2EF0BF0000E016E000E026E000E036E43
:10178000000E046E000E0514096E000E06140A6E9B
:10179000800E07140B6E7F0E08140C6E09500A1091
:1017A0000B100C10D8A4D7EF0BF0D9EF0BF0E1EF32
:1017B0000BF0000E056E000E066E000E076E000E9A
:1017C000086E04AEE6EF0BF0E8EF0BF0F1EF0BF074
:1017D000016C021ED8B0022A031ED8B0032A800E64
:1017E000045608AEF6EF0BF0F8EF0BF001EF0CF03B
:1017F000056C061ED8B0062A071ED8B0072A800E30
:101800000856000E011A000E021A000E031A800E6E
:10181000041A000E051A000E061A000E071A800E92
:10182000081A0550015C065002580750035808502A
:101830000458D8B01EEF0CF020EF0CF023EF0CF0A2
:10184000D89024EF0CF0D8801200000E5A1A000E27
:101850005B1A000E5C1A800E5D1A56C546F557C518
:1018600047F558C548F559C549F55AC54AF55BC508
:101870004BF55CC54CF55DC54DF5F2EC03F046C586
:1018800056F547C557F548C558F549C559F51200ED
:101890003C0EF66E1A0EF76E000EF86E01EE76F143
:1018A00010EE10F00900F5C4EEF4E550E150FAE155
:1018B00001EE60F1160EEE6AE806FDE10401000E8D
:1018C0005D6F020E5E6F000E5F6F00017FEF01F033
:1018D0005650571058105910D8B471EF0CF073EFE0
:1018E0000CF07BEF0CF0000E561A000E571A000E8B
:1018F000581A800E591A56C556F557C557F558C58A
:1019000058F559C559F51200630E656E020E616EE9
:10191000310E636E000E646E190E6B6E000E6C6EEF
:10192000190E6D6E000E6E6EF80E6A16698E190E27
:0A19300002012B6F180E2E6F12003B
:10193C00AFA0A3EF0CF0A5EF0CF0B6EF0CF0CFA21C
:10194C00AAEF0CF0ACEF0CF0B1EF0CF00501744BFE
:10195C00752BB5EF0CF005017407D8A07507AF9087
:10196C0011000201AB9F010EAF6FA00EAE6FF00E17
:10197C00AB17AC8FAB8BAB89200E296FCB820401DC
:10198C00289329932C932B832A93290E0201726F8F
:10199C001200C7800401089109910C910B810A91E6
:1019AC009F80AF90D68AD68ED68C03016381D69E4B
:1019BC00000E04015F6F020E5E6F000E5D6FD68E1F
:1019CC001200056E610014F4ECF30301F381F3B122
:1019DC00F2EF0CF0F4EF0CF0EDEF0CF0EB51046EB9
:1019EC00036AEA510324016E000E0420026E1200F9
:1019FC00C680040100810301F399400EFA6FF80EC2
:101A0C00F517F351F30B0409F36F0F0EF817F00EE3
:101A1C00F817F38F1200016E0201B2AF18EF0DF040
:101A2C001AEF0DF012EF0DF0610004F4A3F21200A6
:101A3C000AD7233C00C07F4400C07FC40000404054
:101A4C000C506C6E61002CF46BF469841200600E07
:061A5C000001AD6F120055
:021A640011006F
:020000040020DA
:10000000FF0FFF0FFF0FFF0FFF0FFF0FFF0FFF0F80
:10001000FF0FFF0FFF0FFF0FFF0FFF0FFF0FFF0F70
:020000040030CA
:0A0000008CDD3FFF9FFFDFFFFFFFD5
:00000001FF
